{"abi":[{"type":"function","name":"HOOK","inputs":[],"outputs":[{"name":"","type":"address","internalType":"address"}],"stateMutability":"view"},{"type":"function","name":"PAIR_TOKEN","inputs":[],"outputs":[{"name":"","type":"address","internalType":"address"}],"stateMutability":"view"},{"type":"function","name":"getLimitsForPool","inputs":[{"name":"token0","type":"address","internalType":"address"},{"name":"token1","type":"address","internalType":"address"}],"outputs":[{"name":"token0Limit","type":"uint256","internalType":"uint256"},{"name":"token1Limit","type":"uint256","internalType":"uint256"}],"stateMutability":"view"},{"type":"function","name":"getLiquidityForPool","inputs":[{"name":"token0","type":"address","internalType":"address"},{"name":"token1","type":"address","internalType":"address"}],"outputs":[{"name":"zeroForOneLiquidity","type":"uint256","internalType":"uint256"},{"name":"oneForZeroLiquidity","type":"uint256","internalType":"uint256"}],"stateMutability":"view"}],"bytecode":{"object":"0x6080604052348015600e575f80fd5b5061093c8061001c5f395ff3fe608060405234801561000f575f80fd5b506004361061004a575f3560e01c8063235488921461004e5780635ff851f61461007b578063a54eb242146100bb578063cf9ded83146100d6575b5f80fd5b61006161005c36600461075d565b6100e9565b604080519283526020830191909152015b60405180910390f35b61009673078d782b760474a361dda0af3839290b0ef57ad681565b60405173ffffffffffffffffffffffffffffffffffffffff9091168152602001610072565b61009673cdfcab084b2d29025772141d3bf473bd9673aaa881565b6100616100e436600461075d565b61018e565b5f806100f58484610343565b9094509250838373cdfcab084b2d29025772141d3bf473bd9673aaa85f7ffffffffffffffffffffffffff87287d489fb8b5c9e225f50c7c6d6f4f10a852a73ffffffffffffffffffffffffffffffffffffffff85160161016b5761015882610390565b955061016482886104a9565b9450610183565b61017582896104a9565b955061018082610390565b94505b505050509250929050565b5f8061019a8484610343565b6040805160a08101825273ffffffffffffffffffffffffffffffffffffffff8085168252831660208201525f9181018290526001606082015273cdfcab084b2d29025772141d3bf473bd9673aaa86080820152929650909450859185916102028260a0902090565b90505f73cdfcab084b2d29025772141d3bf473bd9673aaa890505f8173ffffffffffffffffffffffffffffffffffffffff16637dc0d1d06040518163ffffffff1660e01b8152600401602060405180830381865afa158015610266573d5f803e3d5ffd5b505050506040513d601f19601f8201168201806040525081019061028a9190610794565b6040517fbc60a7aa000000000000000000000000000000000000000000000000000000008152600481018590529091505f9073ffffffffffffffffffffffffffffffffffffffff83169063bc60a7aa9060240160e060405180830381865afa1580156102f8573d5f803e3d5ffd5b505050506040513d601f19601f8201168201806040525081019061031c91906107ec565b90506103318b82608001518360a001516106a0565b909c909b509950505050505050505050565b5f808273ffffffffffffffffffffffffffffffffffffffff168473ffffffffffffffffffffffffffffffffffffffff161015610383575082905081610389565b50819050825b9250929050565b5f808273ffffffffffffffffffffffffffffffffffffffff1663a5ff76516040518163ffffffff1660e01b8152600401602060405180830381865afa1580156103db573d5f803e3d5ffd5b505050506040513d601f19601f820116820180604052508101906103ff9190610794565b6040517f70a0823100000000000000000000000000000000000000000000000000000000815273ffffffffffffffffffffffffffffffffffffffff8216600482015290915073078d782b760474a361dda0af3839290b0ef57ad6906370a0823190602401602060405180830381865afa15801561047e573d5f803e3d5ffd5b505050506040513d601f19601f820116820180604052508101906104a291906108b3565b9392505050565b5f808373ffffffffffffffffffffffffffffffffffffffff1663470a82266040518163ffffffff1660e01b8152600401602060405180830381865afa1580156104f4573d5f803e3d5ffd5b505050506040513d601f19601f820116820180604052508101906105189190610794565b6040517fd9697f0300000000000000000000000000000000000000000000000000000000815273cdfcab084b2d29025772141d3bf473bd9673aaa8600482015290915081905f9073ffffffffffffffffffffffffffffffffffffffff83169063d9697f0390602401602060405180830381865afa15801561059b573d5f803e3d5ffd5b505050506040513d601f19601f820116820180604052508101906105bf91906108b3565b90505f81136105d3575f935050505061069a565b6040517fb47231a000000000000000000000000000000000000000000000000000000000815273ffffffffffffffffffffffffffffffffffffffff86811660048301525f919084169063b47231a090602401602060405180830381865afa158015610640573d5f803e3d5ffd5b505050506040513d601f19601f8201168201806040525081019061066491906108b3565b9050805f03610679575f94505050505061069a565b5f61069261068c846402540be4006108ca565b836106f7565b955050505050505b92915050565b5f807ffffffffffffffffffffffffff87287d489fb8b5c9e225f50c7c6d6f4f10a852a73ffffffffffffffffffffffffffffffffffffffff8616016106e95750819050826106ef565b50829050815b935093915050565b5f7812725dd1d243aba0e75fe645cc4873f9e65afe688c928e1f228310820261072757637c5f487d5f526004601cfd5b50670de0b6b3a7640000919091020490565b73ffffffffffffffffffffffffffffffffffffffff8116811461075a575f80fd5b50565b5f806040838503121561076e575f80fd5b823561077981610739565b9150602083013561078981610739565b809150509250929050565b5f602082840312156107a4575f80fd5b81516104a281610739565b8051600281900b81146107c0575f80fd5b919050565b805162ffffff811681146107c0575f80fd5b805165ffffffffffff811681146107c0575f80fd5b5f60e08284031280156107fd575f80fd5b5060405160e0810167ffffffffffffffff81118282101715610846577f4e487b71000000000000000000000000000000000000000000000000000000005f52604160045260245ffd5b604052610852836107af565b8152610860602084016107af565b6020820152610871604084016107c5565b6040820152610882606084016107c5565b60608201526080838101519082015260a080840151908201526108a760c084016107d7565b60c08201529392505050565b5f602082840312156108c3575f80fd5b5051919050565b808202811582820484141761069a577f4e487b71000000000000000000000000000000000000000000000000000000005f52601160045260245ffdfea2646970667358221220a95bcad897de06b7babd3d19b35a14c626ea9665c4b496b9e3ec4848d186b5bb64736f6c634300081a0033","linkReferences":{}},"methodIdentifiers":{"HOOK()":"a54eb242","PAIR_TOKEN()":"5ff851f6","getLimitsForPool(address,address)":"23548892","getLiquidityForPool(address,address)":"cf9ded83"},"id":93}