{"abi":[{"type":"constructor","inputs":[{"name":"_hookAddress","type":"address","internalType":"address"}],"stateMutability":"nonpayable"},{"type":"function","name":"getLimits","inputs":[{"name":"tokenIn","type":"address","internalType":"address"},{"name":"tokenOut","type":"address","internalType":"address"}],"outputs":[{"name":"realInLimit","type":"uint256","internalType":"uint256"},{"name":"realOutLimit","type":"uint256","internalType":"uint256"}],"stateMutability":"view"},{"type":"function","name":"hookAddress","inputs":[],"outputs":[{"name":"","type":"address","internalType":"address"}],"stateMutability":"view"},{"type":"error","name":"QuoteComputationFailed","inputs":[]}],"bytecode":{"object":"0x608060405234801561000f575f80fd5b50604051610634380380610634833981810160405281019061003191906100d4565b805f806101000a81548173ffffffffffffffffffffffffffffffffffffffff021916908373ffffffffffffffffffffffffffffffffffffffff160217905550506100ff565b5f80fd5b5f73ffffffffffffffffffffffffffffffffffffffff82169050919050565b5f6100a38261007a565b9050919050565b6100b381610099565b81146100bd575f80fd5b50565b5f815190506100ce816100aa565b92915050565b5f602082840312156100e9576100e8610076565b5b5f6100f6848285016100c0565b91505092915050565b6105288061010c5f395ff3fe608060405234801561000f575f80fd5b5060043610610034575f3560e01c806332a3cf9614610038578063aaed87a314610056575b5f80fd5b610040610087565b60405161004d9190610317565b60405180910390f35b610070600480360381019061006b919061035e565b6100aa565b60405161007e9291906103b4565b60405180910390f35b5f8054906101000a900473ffffffffffffffffffffffffffffffffffffffff1681565b5f805f805f9054906101000a900473ffffffffffffffffffffffffffffffffffffffff1690505f808273ffffffffffffffffffffffffffffffffffffffff1663aaed87a388886040518363ffffffff1660e01b815260040161010d9291906103db565b6040805180830381865afa158015610127573d5f803e3d5ffd5b505050506040513d601f19601f8201168201806040525081019061014b919061042c565b915091505f8214801561015d57505f81145b15610170575f80945094505050506102d1565b8273ffffffffffffffffffffffffffffffffffffffff16638e0dc28d88888560016040518563ffffffff1660e01b81526004016101b09493929190610484565b602060405180830381865afa9250505080156101ea57506040513d601f19601f820116820180604052508101906101e791906104c7565b60015b6102b7578273ffffffffffffffffffffffffffffffffffffffff16638e0dc28d8888845f6040518563ffffffff1660e01b815260040161022d9493929190610484565b602060405180830381865afa92505050801561026757506040513d601f19601f8201168201806040525081019061026491906104c7565b60015b61029d576040517f8ba3553700000000000000000000000000000000000000000000000000000000815260040160405180910390fd5b8281106102aa57826102ac565b805b9550819450506102cd565b8295508181106102c757816102c9565b805b9450505b5050505b9250929050565b5f73ffffffffffffffffffffffffffffffffffffffff82169050919050565b5f610301826102d8565b9050919050565b610311816102f7565b82525050565b5f60208201905061032a5f830184610308565b92915050565b5f80fd5b61033d816102f7565b8114610347575f80fd5b50565b5f8135905061035881610334565b92915050565b5f806040838503121561037457610373610330565b5b5f6103818582860161034a565b92505060206103928582860161034a565b9150509250929050565b5f819050919050565b6103ae8161039c565b82525050565b5f6040820190506103c75f8301856103a5565b6103d460208301846103a5565b9392505050565b5f6040820190506103ee5f830185610308565b6103fb6020830184610308565b9392505050565b61040b8161039c565b8114610415575f80fd5b50565b5f8151905061042681610402565b92915050565b5f806040838503121561044257610441610330565b5b5f61044f85828601610418565b925050602061046085828601610418565b9150509250929050565b5f8115159050919050565b61047e8161046a565b82525050565b5f6080820190506104975f830187610308565b6104a46020830186610308565b6104b160408301856103a5565b6104be6060830184610475565b95945050505050565b5f602082840312156104dc576104db610330565b5b5f6104e984828501610418565b9150509291505056fea26469706673582212200fcf7d455e9a4d369fcc4f0707dd4b4b2069e744211e294bf698689a3492023164736f6c634300081a0033","linkReferences":{}},"methodIdentifiers":{"getLimits(address,address)":"aaed87a3","hookAddress()":"32a3cf96"},"id":18}